:020000040801F1
:1040000098610020554201087D5701087556010846
:1040100079570108B1440108295C0108000000003B
:1040200000000000000000000000000085570108AB
:10403000C1440108000000008157010889570108A8
:104040006F4201086F4201086F4201086F42010888
:104050006F4201086F4201086F4201086F42010878
:104060006F4201086F4201086F4201086F42010868
:10407000B54401086F4201086F4201086F42010810
:104080006F4201086F4201086F4201086F42010848
:104090006F4201086F4201086F4201086F42010838
:1040A0006F4201086F4201086F4201086F42010828
:1040B0006F4201086F4201086F4201086F42010818
:1040C0006F4201086F4201086F4201086F42010808
:1040D0006F4201086F4201086F4201086F420108F8
:1040E0006F4201086F4201086F4201086F420108E8
:1040F0006F4201086F4201086F4201086F420108D8
:104100006F4201086F4201086F4201086F420108C7
:104110006F4201086F4201086F4201086F420108B7
:104120006F4201086F4201086F4201086F420108A7
:104130006F4201086F4201086F4201086F42010897
:104140006F4201086F4201086F4201086F42010887
:104150006F4201086F4201086F4201086F42010877
:104160006F4201086F4201086F4201086F42010867
:104170006F4201086F4201086F4201080000000011
:104180006F4201086F42010800F002F800F052F897
:1041900014A696E8000CB244B344DA4501D100F00D
:1041A00049F8BAE80F000FA696E83000A5EB040521
:1041B00004EB0607AAEB0704A7F101074FEA151560
:1041C0004FEA3414A4F10104AC4201D300F032F8F8
:1041D00013F0010F18BFFB1A43F0010300F001F8C0
:1041E000DBE71847D827000008280000103A24BF52
:1041F00078C878C1FAD8520724BF30C830C144BF4C
:1042000004680C6070470000704700000023002421
:1042100000250026103A28BF78C1FBD8520728BFD6
:1042200030C148BF0B6070471FB502F0A0FB1FBD37
:1042300010B510BD00F002F91146FFF7F5FF01F0CF
:1042400051FE00F020F903B4FFF7F2FF03BC00F0C9
:1042500027F900000948804709480047FEE7FEE7C4
:10426000FEE7FEE7FEE7FEE7FEE7FEE7FEE7FEE726
:1042700004480549054A064B7047000039580108B3
:1042800089410108985B002098610020985D00201A
:10429000985D002053EA020C00F069802DE9F04B94
:1042A0004FF00006002B1FBFB3FA83F503FA05F4A5
:1042B00024FA05F65E4012BF1643B2FA82F502FAFE
:1042C00005F4C5F120051EBF22FA05FC44EA0C04E2
:1042D000203556EA044C4FEA144418BF641C4FF0D2
:1042E00000084FF00009904271EB030C39D300290C
:1042F00019BFB1FA81F701FA07F6B0FA80F700FAB0
:1043000007F6C7F120071EBF20FA07FC46EA0C0695
:104310002037B6FBF4FCA7EB0507103F07F01F0B97
:10432000CBF120062CFA06F60CFA0BFB44BFB34681
:104330000026202FA4BF5E464FF0000B5BEA060C60
:1043400008BF4FF0010B19EB0B0948EB0608ABFB5C
:10435000027C06FB02CC0BFB03CCC01B71EB0C01F7
:10436000C1E70B46024641464846BDE8F08B13B50F
:10437000084318BF4FF0FF300146AFF30080BDE89F
:104380001C40704710B5203AC0F00B80B1E81850BF
:10439000A0E81850B1E81850A0E81850203ABFF42F
:1043A000F5AF5FEA027C24BFB1E81850A0E81850CE
:1043B00044BF18C918C0BDE810405FEA827C24BF22
:1043C00051F8043B40F8043B08BF7047D20728BFB0
:1043D00031F8023B48BF11F8012B28BF20F8023BFF
:1043E00048BF00F8012B70474FF0000200B513469C
:1043F00094469646203922BFA0E80C50A0E80C5005
:10440000B1F12001BFF4F7AF090728BFA0E80C50B5
:1044100048BF0CC05DF804EB890028BF40F8042BAE
:1044200008BF704748BF20F8022B11F0804F18BF1B
:1044300000F8012B7047704770477047754600F0D1
:104440002BF8AE4605006946534620F00700854626
:1044500018B020B5FFF70CFFBDE820404FF0000674
:104460004FF000074FF000084FF0000BAC46ACE8EF
:10447000C009ACE8C009ACE8C009ACE8C00921F04B
:1044800007018D46704710B50446AFF30080204603
:10449000BDE81040FFF7D7BE00487047100000206D
:1044A00001491820ABBEFEE726000200704700005D
:1044B000FEE7000040F29C00C2F2000000F006B8E7
:1044C0007047000072B600BFFEE70000F0B581B093
:1044D0000021009140F20801C2F200010B68D0E90E
:1044E000166148F2B51537680822C1F64E358A4084
:1044F0003A42A3FB05350CD003681C68640708D555
:104500001C6824F004041C60B260426D42F0010299
:10451000426501228A403A4208D003685B691B0663
:1045200004D5B260426D42F00202426504228A4024
:104530003A4208D003681B689B0704D5B260426DFD
:1045400042F00402426510228A403A4219D00168C2
:104550000B681B0715D5B2600B680A685B0309D4AA
:10456000D20509D40A6822F008020A60016C29B950
:1045700007E000BF110341D4016C11B10446884724
:104580002046C26D202101FA02F33B4243D001686C
:104590000F68FF063FD5B36090F835700B68052FA4
:1045A0001CD123F016030B604B6923F080034B6191
:1045B000036C0BB9836C1BB10B6823F008030B6011
:1045C0003F219140B160012180F83510016D00223A
:1045D000002980F8342054D158E000BF0A685B03FA
:1045E00010D4D20512D40A6822F010020A60012108
:1045F00080F83510002180F8341007E0816C002924
:10460000BCD1BEE7110301D4416C00E0C16B11B114
:10461000044688472046416DC1B3416DC9072ED07D
:10462000052180F835100168AA0A0B6823F0010300
:104630000B60009B0133934200931AD80B68DB0791
:1046400017D0009B01339342009312D80B68DB070D
:104650000FD0009B0133934200930AD80B68DB070D
:1046600007D0009B01339342009302D80B68DB070D
:10467000DFD1012180F83510002180F83410C16CA1
:1046800021B101B0BDE8F040084700BF01B0F0BD66
:104690002DE9F041044600F0E3F9ECB105460220B3
:1046A00084F835000020216884F83400086820F080
:1046B0000100086021680868C00711D000F0D0F937
:1046C000401B0528F6D9032520230320636584F8C1
:1046D0003550BDE8F08100BF0120BDE8F08100BF8A
:1046E000086848F23F02CFF21002D4E9013500EA2F
:1046F000020C04F10C0898E8C10143EA0C032B43B7
:104700001843D4E9072E304338431043626A40EA25
:104710000E00042A40EA08031CD1206BD4E90A2EBB
:1047200040EA0E00184308604869BEF1000F20F00F
:10473000030040EA020040F0040C11D0B8F5005F1D
:1047400036D0B8F1000F45D1022A46D0012A3BD01D
:1047500032B942E00B60486920F0070040EA020CE1
:1047600001F0F8004AF6AB221038CAF6AA22A0FBE4
:1047700002231A0946F6A013C1F814C0C0F60103BB
:104780009A5C40F2FF335F284FF03F0021EA0301BB
:1047900000FA02F088BF0431C4E9161288600023D1
:1047A00001250020636584F83550BDE8F08100BF25
:1047B000032AD5D8012540230120DFE802F0030EAB
:1047C000030500BF82E700BFAEF1C070B0FA80F011
:1047D000400904E0032A04D3C2D1CEF300600028CC
:1047E000BED0012540230120636584F83550BDE823
:1047F000F081000090F834C0BCF1010F04BF02202A
:10480000704770B54FF0010C80F834C0D0F858E014
:1048100090F835C0BCF1010F38D14FF0020C80F890
:1048200035C04FF0000CC0F854C0D0F800C0846808
:10483000056CC06DDCF80060402C26F48026CCF8B6
:104840000060CCF804300B4604BF13460A463F21F3
:1048500001FA00F0CCF80830CCF80C20CEF80800B3
:10486000DCF8000040F01600CCF800002DB1DCF8B8
:10487000000040F00800CCF80000DCF8000040F038
:104880000100CCF80000002070BD00BF002180F8BE
:104890003410022070BD0000B0B5044600F0E0F80E
:1048A000054640F20000C2F200000078611C18BF0B
:1048B000044400BF00F0D4F8401BA042FAD3B0BDBE
:1048C0002DE9F04F83B000F1200200F13E4741F6A0
:1048D0000045009207F1FF77C4F2020508224FEA73
:1048E000B726A84208BF072200254FF000084FF066
:1048F0000009072E38BF4FEAB72201920AE000BF35
:1049000009F1010908F10208B9F1100F05F10405D8
:1049100000F0A2800F68012202FA09FE17EA0E0ACF
:10492000EED0D1F804C003220CF003077E1E02FA79
:1049300008F4012E6FEA040B12D88468CE6804EAEA
:104940000B0406FA08F634438460446824EA0E0631
:10495000CCF3001404FA09F42643466004E000BFD7
:10496000032F01D103271EE0C6688C6806EA0B06F8
:1049700004FA08F42643022FC66014D16FF0030234
:10498000009E02EA590756F807C005F01C040F22E2
:104990000B69A2402CEA0202A3401A43F251D1F85B
:1049A00004C00CF00307026807FA08F302EA0B02DE
:1049B0001A431CF4403F0260A2D0002243F6440395
:1049C0000292C4F202031A6843F6004442F48042A1
:1049D0001A601A68C4F2010402F480420292029A38
:1049E00029F003024FF6084C2244CFF6FF7C52F820
:1049F0000C3005F00C070F26BE40B343019E06FAAB
:104A000007F73B4342F80C30A2684B6842EA0A07BA
:104A100043F60C4CDE0258BF22EA0A07A760C4F234
:104A2000010CDCF800209E0242EA0A0758BF22EA85
:104A30000A07CCF8007062689E0342EA0A0758BF72
:104A400022EA0A0767602268DB0342EA0A0758BFC6
:104A500022EA0A07276053E703B0BDE8F08F0000A1
:104A600045F69030C2F200000068704740F2000046
:104A700045F69031C2F20000C2F2000100780A68E7
:104A8000104408607047000080B543F60040C4F24F
:104A90000200016841F400710160016841F4806125
:104AA0000160016841F480710160032000F086F824
:104AB0000F2000F005F800F027F8002080BD00006E
:104AC00070B540F20006C2F2000640F208013278EA
:104AD000C2F200014FF47A730968B3FBF2F20446A4
:104AE000B1FBF2F1084600F05FFB0F2C4FF001051F
:104AF00008D838B94FF0FF3021460022002500F0D9
:104B000031F87460284670BD82B0002043F6400141
:104B10000190C4F202014A6842F480424A604A6845
:104B200002F480420192019A0090086840F080509F
:104B30000860086800F080500090009802B070474C
:104B4000002848BF704700F01F01012202FA01F15E
:104B50001C2202EAD0004EF20012CEF20002815076
:104B60007047000010B54EF60C5CCEF2000CDCF87D
:104B70000030C3F3022E8EF00704042C28BF042457
:104B8000BEF103034FF0FF3E0EFA04F438BF0023DA
:104B9000A14399400EFA03F39A43114300F00F0228
:104BA00000F160430901043A03F5644362440028BC
:104BB00048BF02F10C03197010BD00004EF60C51F5
:104BC000CEF200010A684FF6FF031A4060F30A2292
:104BD00042F0806040F0FD7008607047002804BF1C
:104BE000012070472DE9F04143F60808C4F202089D
:104BF0000446D8F8F8030D4600F00700884207D2B3
:104C000088F8F853D8F8F80300F00700A84277D1E5
:104C10002068810717D5410705D5D8F8001041F461
:104C2000E051C8F80010010705D5D8F8001041F48C
:104C30006041C8F80010D8F80010A26821F0F00117
:104C40001143C8F80010C00740D1D8F8F80300F0AD
:104C50000700A84207D988F8F853D8F8F80300F0FD
:104C60000700A8424CD12068410707D5D8F80010AA
:104C7000E26821F4E0511143C8F80010000708D59C
:104C8000D8F80000216920F4604040EAC100C8F86B
:104C9000000000F07DF8D8F8001046F68812C1F345
:104CA0000311C0F60102515C40F2080220FA01F142
:104CB00040F20400C2F200000068C2F2000211607B
:104CC000FFF7FEFE0020BDE8F08100BF6068811E96
:104CD000022907D258F8081C89015CBF0120BDE8F1
:104CE000F08111E0012807D158F8081C89035CBF46
:104CF0000120BDE8F08107E058F8081C890703D4BB
:104D00000120BDE8F08100BFD8F8001021F00301B8
:104D10000843C8F80000FFF7A3FE064641F28837B3
:104D2000D8F80000616800F00C00B0EB810F8CD067
:104D3000FFF796FE801BB842F2D90320BDE8F08150
:104D400040F2080043F60801C2F20000C4F202017A
:104D50000068096846F69812C1F38221C0F6010284
:104D6000515CC8407047000040F2080043F608015B
:104D7000C2F20000C4F202010068096846F6981207
:104D8000C1F34231C0F60102515CC84070470000D7
:104D900010B543F60404C4F20204606800F00C018C
:104DA00042F200400829C0F2F40007D0042918BFDD
:104DB00010BD41F20020C0F27A0010BD216801F060
:104DC0003F02216823684902C3F3881106D4A1FB7E
:104DD00000010023FFF75EFA07E000BF41F2002068
:104DE000C0F27A004843B0FBF2F021680222C1F31E
:104DF000014102EB4101B0FBF1F010BD002804BFFE
:104E0000012070472DE9F04182B00446007843F656
:104E10000006C007C4F202060CD0B06800F00C0017
:104E2000042840F081803068800303D56068002842
:104E300000F06881207880071BD5B06810F00C0F57
:104E400009D0B06800F00C00082840F08780706836
:104E5000400200F183803068800703D5E0680128B4
:104E600040F050813068216920F0F80040EAC1002C
:104E700030602078000713D4207840072AD4A56931
:104E8000002D00F03A81B06800F00C00082840F0D6
:104E9000A580012D40F00E81012002B0BDE8F08117
:104EA0006069002800F082800020C4F247200121C0
:104EB000C0F8801EFFF7D4FD054600BF706F800765
:104EC000DAD4FFF7CDFD401B0228F7D9032002B04A
:104ED000BDE8F081306C5FEAC0080AD40020019080
:104EE000306C40F080503064306C00F080500190A5
:104EF000019847F20007C4F200073868C00547D49C
:104F0000386840F480703860FFF7AAFD054600BF9E
:104F10003868C0053CD4FFF7A3FD401B0228F7D931
:104F2000032002B0BDE8F081B06800F00C00082852
:104F300003D1706840023FF576AF61683068B1F523
:104F4000803F07D0B1F5A02F40F09A8040F4802038
:104F50003060306840F4803030609AE0E0680028CB
:104F600040F20000C4F247205CD001210160FFF74D
:104F700077FD0546306880073FF574AFFFF770FD99
:104F8000401B0228F6D9032002B0BDE8F08100BF23
:104F9000A168306F012905D0052955D140F00400E2
:104FA0003067306F40F00100306756E00020C4F2F7
:104FB00047200021C0F8801EFFF752FD054600BFC4
:104FC000706F80077FF558AFFFF74AFD401B02283E
:104FD000F6D9032002B0BDE8F08100BF0027C4F27B
:104FE000472700203866FFF73BFD022D05460DD10F
:104FF0003068800140F18A80FFF732FD401B0228B3
:105000004FF00300F4D902B0BDE8F08130688001B0
:1050100073D5FFF725FD401B02284FF00300F5D99B
:10502000F1E700BF00210160FFF71AFD054600BF50
:10503000306880077FF51DAFFFF712FD401B022887
:105040004FF00300F4D9DEE720F001003067306F45
:10505000002920F0040030677AD0FFF701FD0546F3
:1050600041F28837306F800700F18480FFF7F8FC49
:10507000401BB842F6D9032002B0BDE8F08100BF62
:1050800020F4803030603068002920F480203060C7
:105090007AD0FFF7E5FC0546306880033FF5CAAEDD
:1050A000FFF7DEFC401B6428F6D9032002B0BDE800
:1050B000F08100BF7068E16900F480028A4221D16A
:1050C000216A00F03F028A421CD147F6C071626A31
:1050D0000140B1EB821F15D1A16A4FF6FF73C903DE
:1050E000994300F44032A1F580318A420AD1E16A45
:1050F00000F07060B0EB016F04D1002002B0BDE899
:10510000F08100BF012002B0BDE8F08104F11C0570
:105110002FCD084340EA8210D9034FF6FF72914326
:10512000A1F5803140EA05600843706001203866CF
:10513000FFF796FC044600BF30688001DDD4FFF71E
:105140008FFC001B02284FF00300F5D95BE700BF7E
:10515000FFF786FC054641F2883700BF306F8007B5
:1051600008D5FFF77DFC401BB8424FF00300F5D98E
:1051700049E700BFB8F1000F3FF581AE306C20F079
:10518000805030647BE600BFFFF76AFC054600BF35
:10519000306880037FF54EAEFFF762FC401B642849
:1051A0004FF00300F4D92EE7411E0020B0EB116F41
:1051B0001CBF012070474EF21002CEF20002516077
:1051C0004EF62351CEF20001F0230B7007219060C0
:1051D000116070477047000070470000002804BF4E
:1051E0000120704710B5044690F8410028B900200E
:1051F00084F84000204600F021F8242084F8410083
:105200002068C16821F40051C160204600F098FC7C
:105210002068016921F490410161416921F02A016E
:105220004161C16841F40051C160002020216064E7
:1052300084F8411084F84210606310BD70B586B0E8
:10524000016844F60002C4F2000200269142CDE952
:105250000466CDE90266019630D041F20000C4F246
:105260000100814276D1002043F630010090C4F263
:1052700002014A6942F010024A614A6902F01002D2
:105280000092009A00900A6842F002020A600968DF
:1052900001F0020100910099C02101910221CDE9A4
:1052A0000210032004900720059040F20040C4F251
:1052B000020001A9FFF704FB06B070BD054643F6E6
:1052C00030000096C4F20200016941F480210161BE
:1052D000016901F48021009100990096016841F074
:1052E00002010160006801A900F00200009000982E
:1052F0004FF4406001900220CDE9020603200490A3
:105300000720059040F20040C4F20200FFF7D8FAEF
:1053100040F29C0446F22800C2F20004C4F20200EB
:105320004FF0006184E843004FF440304FF4806256
:105330004FF48073C4E908062046C4E90362C4E957
:105340000566E361FFF7A4F9002818BFFFF7BAF874
:10535000EC63A56306B070BD70B582B090F84250A2
:10536000202D0BD113460A460146002A4FF00100BA
:1053700018BF002B06D102B070BD00BF022002B0E2
:1053800070BD00BF002622200E638A628B854E64AA
:1053900081F842000C680D46C86B45F6C91C45F6FD
:1053A0002931C0F6010CC0F60101C0E90FC145F674
:1053B0004D01C0F60101C0E91316211DFFF71AFACD
:1053C00040B110206864202085F84200012002B01E
:1053D00070BD00BF019628682946026801924068A6
:1053E00001900198286928B3086850E8030F0A68FB
:1053F00040F4807042E80303E3B1086850E8030F0B
:105400000A6840F4807042E803039BB1086850E8E2
:10541000030F0A6840F4807042E8030353B1086840
:1054200050E8030F0A6840F4807042E80303002B41
:10543000DAD100BF086850E8050F0A6840F00100A3
:1054400042E80503DBB3086850E8050F0A6840F03E
:10545000010042E8050393B3086850E8050F0A68A5
:1054600040F0010042E805034BB3086850E8050F1F
:105470000A6840F0010042E80503002BDAD11EE083
:10548000086850E8050F0A6840F0400042E805034C
:10549000FBB1086850E8050F0A6840F0400042E898
:1054A0000503B3B1086850E8050F0A6840F04000F2
:1054B00042E80503002B4FF000003FF45CAF0868A2
:1054C00050E8050F0A6840F0400042E80503002B51
:1054D000D6D1002002B070BD7047000070470000B8
:1054E0002DE9F04381B0044690F84100202809D10D
:1054F00000294FF0010018BF002A07D101B0BDE814
:10550000F08300BF022001B0BDE8F083002060649A
:1055100021201D460E4684F841001746FFF7A0FAE9
:10552000A784E784A1688146B1F5805F02D1206934
:1055300000285DD037460020E28C2168002A5DD02B
:105540006A1C24D0002D4AD0804600BF086800069F
:1055500008D4FFF785FAA0EB0900A8427AD82168A1
:10556000C868F3E717B117F8010B04E038F8020B2D
:1055700000276FF35F204860E08C0138E084E08C06
:105580000028E3D13AE000BF0A68120609D40A688D
:10559000120606D40A6812065CBF0A685FEA026255
:1055A000F2D51FB117F8012B05E000BF30F8022B30
:1055B00000276FF35F224A60E28C013AE284E28CBA
:1055C000002AE4D11AE000BF30F8022B00276FF365
:1055D0005F224A60E28C013AE284E28C72B10A688E
:1055E000120635D5002FEFD017F8012BF1E700BFD9
:1055F00000273046E28C2168002AA1D108684006C5
:105600001ED42DB3681C14D1086840062AD408683B
:10561000400627D40868400624D4086840064FF0A6
:105620000000F1D50DE000BF2068C16800684006A9
:1056300018D4FFF715FAA0EB0900A842F4D909E045
:105640000020202184F8411001B0BDE8F08300BFA4
:10565000FFF706FA0320202184F8411001B0BDE8CD
:10566000F08300BF0020202184F8411001B0BDE884
:10567000F0830000FEE7000080B582B000200190BA
:1056800043F63000C4F202000168002241F4001128
:1056900001600068002100F40010019001980C20C6
:1056A000FFF760FA0C2002B0BDE88040FFF748BA6F
:1056B00083B0002043F630010290C4F202010A6870
:1056C00042F080020A600A6802F080020292029AA6
:1056D00001900A6842F002020A600A6802F00202BF
:1056E0000192019A0090086840F001000860086883
:1056F00000F001000090009803B0704780B540F2C0
:10570000FC0041F20001C2F20000C4F201010023DA
:105710004FF00C0C4FF4E13280E80E00C0E9033387
:10572000C0E905C3C361FFF759FD002808BF80BD6C
:10573000BDE88040FEF7C6BE80B540F2441044F696
:105740000001C2F20000C4F200014AF2201200235C
:105750004FF00C0CC0F2070280E80E00C0E90333E2
:10576000C0E905C3C361FFF739FD002808BF80BD4C
:10577000BDE88040FEF7A6BEFEE70000FEE70000A1
:105780007047000070470000FFF770B970B592B025
:1057900006AC20463021FEF727FE002543F64000E8
:1057A0000595CDE90355CDE901550095C4F20200F8
:1057B0000168022641F080510160006800F08050CD
:1057C0000090009847F200000095C4F200000168C4
:1057D00041F480410160006800F48040009000982E
:1057E000012006904FF4803007904FF480000D9018
:1057F00008200E904FF4A870CDE90F0604201190F8
:1058000020460C96FFF7FAFA10B172B6FEE700BF19
:105810000F20CDE901064FF4A05004904FF48050C2
:10582000059001A805210395FFF7D8F910B172B6CC
:10583000FEE700BF12B070BD4EF68850CEF20000F9
:10584000016841F47001016070470000806B0168DD
:105850004A6990F84130212B2DD112F080022AD0D4
:105860000021C184016851E8031F026821F0C001D2
:1058700042E80313DBB1016851E8031F026821F01D
:10588000C00142E8031393B1016851E8031F0268A5
:1058900021F0C00142E803134BB1016851E8031F36
:1058A000026821F0C00142E80313002BDAD1202165
:1058B00080F841100168496990F84220222A40F09E
:1058C0007D8011F0400179D00021C185016851E847
:1058D000031F026821F4907142E80313BBB301680F
:1058E00051E8031F026821F4907142E8031373B377
:1058F000016851E8031F026821F4907142E8031324
:105900002BB3016851E8031F026821F4907142E84B
:105910000313002BDAD11AE0016851E8051F026871
:1059200021F0010142E80513DBB1016851E8051FD0
:10593000026821F0010142E8051393B1016851E8C2
:10594000051F026821F0010142E805134BB101680F
:1059500051E8051F026821F0010142E80513002B00
:10596000DAD1016B012924D1016851E8031F0268D3
:1059700021F0100142E80313DBB1016851E8031F75
:10598000026821F0100142E8031393B1016851E865
:10599000031F026821F0100142E803134BB10168B4
:1059A00051E8031F026821F0100142E80313002BA5
:1059B000DAD1202180F8421000210163416C41F0CE
:1059C00010014164FFF708BC0168806B0968C905D4
:1059D00000F19F800021C185016851E8031F026822
:1059E00021F4807142E80313E3B1016851E8031F19
:1059F000026821F4807142E803139BB1016851E809
:105A0000031F026821F4807142E8031353B1016857
:105A100051E8031F026821F4807142E80313002B50
:105A2000DAD100BF016851E8051F026821F00101C9
:105A300042E80513BBB3016851E8051F026821F075
:105A4000010142E8051373B3016851E8051F0268BC
:105A500021F0010142E805132BB3016851E8051F4D
:105A6000026821F0010142E80513002BDAD11AE0A7
:105A7000016851E8051F026821F0400142E8051362
:105A8000DBB1016851E8051F026821F0400142E8DE
:105A9000051393B1016851E8051F026821F0400128
:105AA00042E805134BB1016851E8051F026821F077
:105AB000400142E80513002BDAD1202180F8421082
:105AC000016B012925D100BF016851E8031F02685D
:105AD00021F0100142E80313DBB1016851E8031F14
:105AE000026821F0100142E8031393B1016851E804
:105AF000031F026821F0100142E803134BB1016853
:105B000051E8031F026821F0100142E80313002B43
:105B1000DAD100214163016B012918BFFFF7DCBC1A
:105B2000818DFFF757BB0000806B01214163016B42
:105B3000012918BFFFF7D2BC818D4908FFF74ABB86
:105B4000B0B50446006804F108030ECB056919439B
:105B500025F440552A4302616269E3691143C26832
:105B6000194349F20C639A431143C1604169A26928
:105B700021F4407141F20043114340F48062C4F2C9
:105B800001039A42416103D1FFF7EEF802E000BF42
:105B9000FFF7D6F8E1694FF69C7563681922C0F6E5
:105BA000FF75B1F5004FA0FB02011FD15A00DB0FBA
:105BB000FEF770FB48F21F51C5F2EB11A0FB012369
:105BC0005A0905F1805302FB0300322303EBC000A6
:105BD000A0FB01014FF4F87000EA111000EB021075
:105BE000C1F34211084421688860B0BD9A009B0F40
:105BF000FEF750FB48F21F51C5F2EB11A0FB012349
:105C00005A0902FB0500322303EB0010A0FB01013F
:105C1000F02000EA511000EB0210C1F343110844D8
:105C200021688860B0BD0000FEE700004EF60C5011
:105C3000BFF34F8FCEF200000168042201F4E0614F
:105C4000C0F2FA5211430160BFF34F8F00BF00BF93
:105C500000BF00BFFAE70000002904BF0020704722
:105C600070B548F2203E0129CEF6B85E06D14FF05D
:105C7000FF320023C90766D18FE000BF21F0010287
:105C8000C2F1000C4FF0FF326FF00103C418A57889
:105C9000E4786A408EEA5205D60708BF55088EEAB6
:105CA0005502EE0708BF6A088EEA5205D60708BFFC
:105CB00055088EEA5502EE0708BF6A088EEA5205BB
:105CC000D60708BF55088EEA5502EE0708BF6A08D6
:105CD0008EEA5205D60708BF55088EEA5502EE0730
:105CE00008BF6A0862408EEA5204D50708BF54080C
:105CF0008EEA5402E50708BF62088EEA5204D5070F
:105D000008BF54088EEA5402E50708BF62088EEA0D
:105D10005204D50708BF54088EEA5402E50708BFAD
:105D200062088EEA5204D50708BF54088EEA54026E
:105D30000233E50708BF62080CEB03040234A5D167
:105D40000233C90729D0C05C50408EEA5001C20717
:105D500008BF41088EEA5100CA0708BF48088EEA0A
:105D60005001C20708BF41088EEA5100CA0708BFA8
:105D700048088EEA5001C20708BF41088EEA510068
:105D8000CA0708BF48088EEA5001C20708BF410889
:105D90008EEA5102C80708BF4A08D04370BD000010
:105DA000C0437047002A00F09B8048F2203C012A43
:105DB000CEF6B85C02D1002365E000BF70B522F0DA
:105DC0000103C3F1000E6FF0010300BFCC18A578EA
:105DD000E47868408CEA5005C60708BF45088CEA9D
:105DE0005500EE0708BF68088CEA5005C60708BFD3
:105DF00045088CEA5500EE0708BF68088CEA500594
:105E0000C60708BF45088CEA5500EE0708BF6808BA
:105E10008CEA5005C60708BF45088CEA5500EE0716
:105E200008BF680860408CEA5004C50708BF4408F2
:105E30008CEA5400E50708BF60088CEA5004C507E7
:105E400008BF44088CEA5400E50708BF60088CEAE4
:105E50005004C50708BF44088CEA5400E50708BF92
:105E600060088CEA5004C50708BF44088CEA540057
:105E70000233E50708BF60080EEB03040234A5D126
:105E80000233BDE87040D20708BF7047C95C484084
:105E90008CEA5001C20708BF41088CEA5100CA07CA
:105EA00008BF48088CEA5001C20708BF41088CEAC5
:105EB0005100CA0708BF48088CEA5001C20708BF52
:105EC00041088CEA5100CA0708BF48088CEA500113
:105ED000C20708BF41088CEA5100CA0708BF48083A
:105EE000704700004EF6085044F20001CEF2000068
:105EF000C0F601010160FEF7C7FDFFF747FCFFF7A1
:105F0000D7FBFFF7B9FBFFF7F9FBFFF715FC00F034
:105F1000A5F840F2FC0846F6A815C2F20008C0F643
:105F200001054046294612226423FFF7D9FAFEF7FD
:105F300097FD0446064603E0381BB0F57A7F09D288
:105F4000FEF78EFD0746801B0528F5D300F014F8F8
:105F50003E46F1E74046294612226423FFF7C0FA85
:105F60003C46EDE70A46014640F27000C2F20000EE
:105F7000183000F0A7BC0000F0B583B040F2441424
:105F8000C2F2000420680168090706D500210291C9
:105F90000168029141680291029994F8421041F21D
:105FA0008C352029C2F200051AD10026019601681D
:105FB0004FF400620191406845F2903101900198E0
:105FC000C2F200012046FFF7C7F92068C16821F43A
:105FD0008071C160416921F0010141612E6000E0E2
:105FE0002E68E06B00684768C7F50064B44218D0BB
:105FF00045F29030C2F20000B442304402D9A11BF5
:106000000CE000BFC6F50061FFF7ACFFB7F5006F0D
:1060100006D045F29030C2F200002146FFF7A2FF01
:106020002C6003B0BDE8F04000F042B810B540F27B
:106030007004C2F2000441F2903104F11800C2F27F
:1060400000014FF4804200F035FB00202070C4E9CD
:106050000200C4E90400E080207110BD10B582B0D8
:10606000FFF7E4FF41F28C30C2F20000002140F261
:10607000441401600191C2F2000420684FF40062F0
:1060800001680191406845F2903101900198C2F297
:1060900000012046FFF760F92068C16821F4807193
:1060A000C160416921F00101416102B010BD0000F1
:1060B0002DE9F04FC7B040F27007C2F2000707F1B8
:1060C0001804204600F0E2FA6421414338790022A6
:1060D000B1F5A01F38BF012250EA02054FF00002BF
:1060E0000ED0B1F5A82F38BF01221040012814D1DD
:1060F00040F24410C2F200000FF28451082206E080
:1061000040F24410C2F200000FF26C510722322319
:10611000FFF7E6F985F001003871204600F0B6FA85
:106120001428C0F099824CF23C390DF11C0A41F25E
:106130008C1640F24415C5F6A5290AF11C000DF194
:106140000808C2F200064FF0000BC2F200050190F1
:106150000AE000BF2046012100F09AFA204600F034
:1061600095FA132840F2788220464146142200F026
:10617000A7FA02984845EDD1BDF81400B0F5007FAC
:1061800002D920461421E7E7204600F07FFABDF847
:10619000141014318842C0F05F822046142100F0B0
:1061A00077FABDF814201AB12046314600F0F2FA11
:1061B0009DF80C00411E012909D8BDF81410304685
:1061C000FFF74AFD0699884226D19DF80C00032866
:1061D0003AD002282AD0012840F0D880BDF8140017
:1061E0005246BDF80EA0282800F00A81102840F081
:1061F0003F813068484540F03581D6E9026544F278
:106200000100301A10F5804F80F088814FF4C17082
:10621000CDF81C90DEE100BFBDF80E0040F28221F7
:10622000ADF82200F868CDF81C90B8E03878BDF8D9
:106230000EA0002800F0BC80F888504540F22E8166
:10624000CDF81C908120B7E038785646BDF80EA0F6
:106250004FF0000B002800F0C7800498F9688142D5
:1062600040F03081F988514540F050810698009007
:10627000B868FFF795FDFD6879698D4240F0668149
:1062800040F27001C2F200010969884240F05E816B
:106290000099884240F05A814CF2000740F28C107D
:1062A000C0F60007C2F2000039464FF48052FEF7F4
:1062B00069F8304639464FF48072FEF763F8079864
:1062C00048450AD146984CF2C331CAF2A5518842DA
:1062D00003D10898B0F1011F0DD00198E021FEF71D
:1062E00083F84FF0011008904CF2C330CAF2A55069
:1062F000CDF81C9046900A9500984CF20005C0F627
:1063000007050B90A5F5D020CDE90C054AF65520E0
:10631000CAF6552009903046F821CDF840B03746EE
:10632000FFF79AFC40F28C1BC2F2000B45905846D6
:1063300031464FF48072FEF725F80BF58070314638
:106340004FF48072FEF71EF8A5F5E02528464FF4BD
:10635000805100F002FB40B1284659464FF480526C
:1063600000F000FB002840F07B8140F2700740F213
:106370008260C2F20007ADF82000F868CDF81C90EA
:10638000ADF822A009904FF0000BA4E0BDF80E007C
:10639000CDF81C90ADF82200F8684FF4C171ADF84B
:1063A00020100990CDF828B0CDF82CB0284614E084
:1063B0004FF4C170CDF81C90ADF82000F868ADF82E
:1063C00022A0099040F24415C2F2000528460DF1C2
:1063D0001C0ACDF828B0CDF82CB051461422642305
:1063E000FFF77EF8BAE600BF4FF4C170ADF82000A9
:1063F000F868CDF81C90ADF822A009906BE000BFC2
:10640000306848452ED1306902282BD17069282880
:1064100028D14CF20001B069C0F60701A1F5D021E6
:1064200088421FD1F06901281CD13046D6E90265A7
:10643000D0F824B02421FFF70FFC58453FF4DFAE1D
:1064400082200221524600F067FA41F28C1640F297
:1064500044150DF11C0AC2F200064FF0000BC2F207
:1064600000057BE64FF4C170CDF81C9004E000BF3E
:10647000CDF81C9040F28250ADF82000F86840F250
:106480004415C2F20005ADF822A00990CDF828B05D
:10649000CDF82CB02846924611469FE730D104989B
:1064A000F968814248D1BDF8145025B17969421983
:1064B0008A4240F2A58040F28251CDF81C90ADF89E
:1064C00020108AE040F28240CDF81C90ADF8200008
:1064D000ADF822A0099140F24415C2F20005CDF8B2
:1064E00028B0CDF82CB02846B24631461422642399
:1064F000FEF7F6FF41F28C16C2F200062EE600BF50
:10650000CDF81C9040F2823056E700BF40F2823155
:10651000CDF81C90ADF820106DE700BF3878012849
:1065200034D17869864231D1386985422ED1CDF88F
:106530001C9081204EE000BF40F28240CDF81C90BC
:10654000ADF82000ADF822A009913BE7099540F293
:10655000441540F28270C2F20005ADF820004FF001
:10656000000B2846314614226423CDF81C90ADF868
:1065700022A0CDE90ABBB246FEF7B2FF40F2700797
:10658000C2F2000787F800B0B4E700BF4CF2000089
:10659000C0F607004FF4804100F0DFF9B0B14FF0D2
:1065A000FF30B86000200121C7E903054FF0000B60
:1065B0008120F9807E613970CDF81C90ADF8200003
:1065C000ADF822A0CDF824B00CE000BFCDF81C90AF
:1065D00040F28260ADF82000F8684FF0000BADF893
:1065E00022A0099040F24415C2F200050DF11C0AE8
:1065F00028465146CDF828B0CDF82CB076E700BF3C
:106600004CF2000141F28C16C0F60701C2F20006FE
:10661000084431462A4600F0A5F978B1B8683146F9
:106620002A46FFF7BFFBF968B8604819F988F86097
:10663000481CF8808120002102E000BF8220062152
:10664000524600F069F940F244154FF0000BC2F2D7
:1066500000050DF11C0A81E547B0BDE8F08F00BFD1
:1066600081200021524600F057F91420FEF714F95A
:1066700072B6FFF7DBFA00BF50415553450D0A00D3
:10668000524553554D450D0A000000000069704702
:1066900080B5D0E903C3D0F804E08B4238BF194677
:1066A0008C44BCFBFEF2591A02FB1EC2C0E9032156
:1066B00080BD0000002380E80E00C0E9033370476E
:1066C0002DE9F043056981461046954238BF2846BA
:1066D00000285DD0D9F80C2000F0030C84084FF09E
:1066E000000533D0A5EB840E01F101086FF003041F
:1066F000D9F8006008EB0407B65C0132FE70D9E9F6
:1067000000650434B2FBF5F303FB1522B35C0132E0
:106710003B71D9E90035B2FBF5F606FB15229B5C0F
:1067200001327B71D9E90035B2FBF5F606FB152283
:106730009B5C0132BB71D9F80430B2FBF3F505FB69
:1067400013220EEB04030433D2D1251DBCF1000F3C
:106750001ED0D9F80030BCF1010F9B5C4B5517D00F
:10676000D9E900370132B2FBF7F6294406FB1722BC
:10677000BCF1020F9B5C4B7008BFBDE8F083D9E908
:1067800000370132B2FBF7F606FB17229A5C8A70DB
:10679000BDE8F0832DE9F04703699646934238BF80
:1067A0009E46BEF1000F00F08A80C5680EF0030C13
:1067B0005FEA9E034FF0000249D0A2EB830801F18B
:1067C00001096FF0030200BF0668765D09EB020560
:1067D000EE70D0E90367D0E900A40136B6FBF4F30C
:1067E000043203FB14637C1EC0E903341AF803303F
:1067F0002B71D0E90334D0E900A70133B3FBF7F6DE
:10680000013C06FB1733C0E903341AF803306B71FF
:10681000D0E90334D0E900A70133B3FBF7F6013C1C
:1068200006FB1733C0E903341AF80330AB71D0E923
:10683000033445680133B3FBF5F606FB1535631EDB
:1068400008EB02040434C0E90353BDD10432BCF1A7
:10685000000F34D00368BCF1010F5B5D8B54D0E9AD
:106860000334456803F10103B3FBF5F6A4F1010419
:1068700006FB1533C0E9033421D004681144E35CFE
:10688000BCF1020F4B70D0E90323446802F101020E
:10689000B2FBF4F5A3F1010305FB1422C0E90323C5
:1068A0000DD003689A5C8A70D0E903124368013105
:1068B000B1FBF3F7013A07FB1311C0E9031270466D
:1068C000BDE8F087002A04BF0020704710B5436878
:1068D000D0F810E0844600209E4528BF10BD11F876
:1068E00000E0DCF80030DCF80840013003F804E098
:1068F000DCE90134824204F1010EBEFBF3F404FB37
:1069000013E4DCF810E0CCF808400EF1010ECCF8EE
:1069100010E0E1D1104610BD80B586B08DF80800BA
:1069200040F27000C2F20000C0684CF23C330390A9
:106930000020C5F6A523CDE9040040F244100193E0
:106940008DF80910ADF80A20C2F2000001A9142246
:106950006423FEF7C5FD06B080BD46F2991CC2F265
:10696000000C604746F2BD3CC2F2000C6047F1EEFD
:10697000100A4FF6FF71C0F2C03120EA010040F06A
:106980004070E1EE100A70470000000000000000B7
:1069900001020304060708090000000001020304C5
:1069A00000061016000610164150502076322E3088
:1069B0002072756E6E696E670D0A0000F06901083D
:1069C0000000002010000000EC410108006A0108EE
:1069D000986100201C030000EC410108006A0108D6
:1069E00010000020886100000C4201080000000037
:1069F00001000000100000000024F400000000006E
:106A00000246B0F1006F4FF00000C0F09E800029F8
:106A100000F09B804FF6FF70CFF2F7708B1803EBFE
:106A2000000C013084454FF0000038BF704702F180
:106A30007841B0EB114F01D1880B0CE0B1F5003F6C
:106A400002D2042007E000BF02F1764000F1FF709F
:106A5000052101EB50406FF000615A180021B1EBA5
:106A6000124F03D14FEA923C0AE000BFB2F5003F5B
:106A700031BF4FF0040C0CF5C021052202EB514C44
:106A800043F60C41C4F202014B68B3F1FF3F0BDC4B
:106A900040F22313C4F2675341F8083C48F6AB13A5
:106AA000CCF6EF5341F8083C0B68604543F0F10326
:106AB0000B6004D942E000BF0B68DB0309D50B680B
:106AC000DB0306D50B68DB0344BF0B685FEAC33307
:106AD000F2D40B680A6813F0F00F42F0F1020A607A
:106AE0002ED14A6822F078024A604A6842EAC0021F
:106AF0004A604A6842F002024A604A6842F48032C0
:106B00004A600A68D20309D50A68D20344BF0A68FA
:106B10005FEAC23202D50A68D203F2D40A680B686F
:106B200012F0F00F43F0F1030B604B6823F0020307
:106B30004B6005D1604500F10100C0D1012000E0AB
:106B400000204A6842F000424A60704702466FF3F4
:106B50009202B2F1006F1CBF0020704780B543F66F
:106B60000C42C4F202025368B3F1FF3F0BDC40F267
:106B70002313C4F2675342F8083C48F6AB13CCF633
:106B8000EF5342F8083C136843F0F10313601368B5
:106B9000DB0309D51368DB0344BF13685FEAC33323
:106BA00002D51368DB03F2D4D2F800E013681EF0BC
:106BB000F00F43F0F1031360D2F804C004D00020BA
:106BC0004CF00041516080BD2CF440735360536819
:106BD00043F400735360536843F001035360016052
:106BE0001068C00309D51068C00344BF10685FEA8D
:106BF000C03002D51068C003F2D41068116800F0EC
:106C0000F00041F0F10111605168B0FA80F021F01C
:106C100001015160D2F804C040094CF000415160BC
:106C200080BD00BFB0F1006F4FF0000C74D300299D
:106C300072D0002A70D070B54FF6FF758318CFF26E
:106C4000F7752B440135AB4202D24FF0000C61E0E6
:106C500043F60C43C4F202035D68B5F1FF3F0BDC61
:106C600040F22315C4F2675543F8085C48F6AB15AB
:106C7000CCF6EF5543F8085C1D684FF0000E45F068
:106C8000F1051D600DE000BF1C681C680EF1010ECF
:106C900044F0F1041C605C68964524F001045C60DB
:106CA00034D011F80E601C68E40309D51C68E403B5
:106CB00044BF1C685FEAC43402D51C68E403F2D404
:106CC0001C681D6814F0F00445F0F1051D601BD12F
:106CD0005D68B4FA84F425F440755D605D684FEA40
:106CE000541C45F001045C600EF800601C68E4036D
:106CF000CAD51C68E40344BF1C685FEAC434C3D52A
:106D00001C68E403F2D4BFE74FF0000C586840F071
:0C6D100000405860BDE8704060467047CD
:040000050801418924
:00000001FF
