:020000040800F2
:10000000C0160020550200083D110008A910000884
:10001000391100083D050008F51200080000000035
:100020000000000000000000000000004511000872
:1000300041050008000000004111000849110008B6
:100040006F0200086F0200086F0200086F020008CC
:100050006F0200086F0200086F0200086F020008BC
:100060006F0200086F0200086F0200086F020008AC
:100070006F0200086F0200086F0200086F0200089C
:100080006F0200086F0200086F0200086F0200088C
:100090006F0200086F0200086F0200086F0200087C
:1000A0006F0200086F0200086F0200086F0200086C
:1000B0006F0200086F0200086F0200086F0200085C
:1000C0006F0200086F0200086F0200086F0200084C
:1000D0006F0200086F0200086F0200086F0200083C
:1000E0006F0200086F0200086F0200086F0200082C
:1000F0006F0200086F0200086F0200086F0200081C
:100100006F0200086F0200086F0200086F0200080B
:100110006F0200086F0200086F0200086F020008FB
:100120006F0200086F0200086F0200086F020008EB
:100130006F0200086F0200086F0200086F020008DB
:100140006F0200086F0200086F0200086F020008CB
:100150006F0200086F0200086F0200086F020008BB
:100160006F0200086F0200086F0200086F020008AB
:100170006F0200086F0200086F0200080000000014
:100180006F0200086F02000800F002F800F052F859
:1001900014A696E8000CB244B344DA4501D100F04D
:1001A00049F8BAE80F000FA696E83000A5EB040561
:1001B00004EB0607AAEB0704A7F101074FEA1515A0
:1001C0004FEA3414A4F10104AC4201D300F032F838
:1001D00013F0010F18BFFB1A43F0010300F001F800
:1001E000DBE71847341D0000641D0000103A24BFEF
:1001F00078C878C1FAD8520724BF30C830C144BF8C
:1002000004680C6070470000704700000023002461
:1002100000250026103A28BF78C1FBD8520728BF16
:1002200030C148BF0B6070471FB501F052FE1FBDC3
:1002300010B510BD00F047F91146FFF7F5FF01F0CA
:1002400033FE00F065F903B4FFF7F2FF03BC00F0E2
:100250006DF900000948804709480047FEE7FEE7BE
:10026000FEE7FEE7FEE7FEE7FEE7FEE7FEE7FEE766
:1002700004480549054A064B70470000F91100087B
:1002800089010008C0100020C0160020C012002004
:10029000C012002053EA020C00F069802DE9F04BF7
:1002A0004FF00006002B1FBFB3FA83F503FA05F4E5
:1002B00024FA05F65E4012BF1643B2FA82F502FA3E
:1002C00005F4C5F120051EBF22FA05FC44EA0C0422
:1002D000203556EA044C4FEA144418BF641C4FF012
:1002E00000084FF00009904271EB030C39D300294C
:1002F00019BFB1FA81F701FA07F6B0FA80F700FAF0
:1003000007F6C7F120071EBF20FA07FC46EA0C06D5
:100310002037B6FBF4FCA7EB0507103F07F01F0BD7
:10032000CBF120062CFA06F60CFA0BFB44BFB346C1
:100330000026202FA4BF5E464FF0000B5BEA060CA0
:1003400008BF4FF0010B19EB0B0948EB0608ABFB9C
:10035000027C06FB02CC0BFB03CCC01B71EB0C0137
:10036000C1E70B46024641464846BDE8F08B13B54F
:10037000084318BF4FF0FF300146AFF30080BDE8DF
:100380001C407047032A40F2308010F0030C00F04C
:10039000158011F8013BBCF1020F624498BF11F8BF
:1003A00001CB00F8013B38BF11F8013BA2F1040278
:1003B00098BF00F801CB38BF00F8013B11F00303F0
:1003C00000F02580083AC0F0088051F8043B083A54
:1003D00051F804CBA0E80810F5E7121D5CBF51F8F6
:1003E000043B40F8043BAFF30080D20724BF11F870
:1003F000013B11F801CB48BF11F8012B24BF00F8D5
:10040000013B00F801CB48BF00F8012B704710B545
:10041000203AC0F00B80B1E81850A0E81850B1E8BD
:100420001850A0E81850203ABFF4F5AF5FEA027CFC
:1004300024BFB1E81850A0E8185044BF18C918C02C
:10044000BDE810405FEA827C24BF51F8043B40F8CD
:10045000043B08BF7047D20728BF31F8023B48BFB2
:1004600011F8012B28BF20F8023B48BF00F8012BF0
:1004700070474FF0000200B5134694469646203967
:1004800022BFA0E80C50A0E80C50B1F12001BFF44D
:10049000F7AF090728BFA0E80C5048BF0CC05DF8B3
:1004A00004EB890028BF40F8042B08BF704748BF01
:1004B00020F8022B11F0804F18BF00F8012B704775
:1004C000704770477047754600F02CF8AE4605003F
:1004D0006946534620F00700854618B020B5FFF75F
:1004E000C7FEBDE820404FF000064FF000074FF078
:1004F00000084FF0000BAC46ACE8C009ACE8C009FE
:10050000ACE8C009ACE8C00921F007018D4670478E
:1005100010B50446AFF300802046BDE81040FFF759
:1005200092BE0000004870471000002001491820CA
:10053000ABBEFEE72600020070470000FEE70000A9
:100540007047000072B600BFFEE700002DE9F04FD3
:1005500083B000F1200200F13E4741F600450092D1
:1005600007F1FF77C4F2020508224FEAB726A84236
:1005700008BF072200254FF000084FF00009072EA2
:1005800038BF4FEAB72201920AE000BF09F1010922
:1005900008F10208B9F1100F05F1040500F0A2807E
:1005A0000F68012202FA09FE17EA0E0AEED0D1F80E
:1005B00004C003220CF003077E1E02FA08F4012E89
:1005C0006FEA040B12D88468CE6804EA0B0406FABA
:1005D00008F634438460446824EA0E06CCF3001421
:1005E00004FA09F42643466004E000BF032F01D15A
:1005F00003271EE0C6688C6806EA0B0604FA08F4B6
:100600002643022FC66014D16FF00302009E02EA57
:10061000590756F807C005F01C040F220B69A240C9
:100620002CEA0202A3401A43F251D1F804C00CF0A4
:100630000307026807FA08F302EA0B021A431CF4E4
:10064000403F0260A2D0002243F644030292C4F26B
:1006500002031A6843F6004442F480421A601A68A2
:10066000C4F2010402F480420292029A29F00302C9
:100670004FF6084C2244CFF6FF7C52F80C3005F0C0
:100680000C070F26BE40B343019E06FA07F73B4313
:1006900042F80C30A2684B6842EA0A0743F60C4C59
:1006A000DE0258BF22EA0A07A760C4F2010CDCF898
:1006B00000209E0242EA0A0758BF22EA0A07CCF845
:1006C000007062689E0342EA0A0758BF22EA0A07DE
:1006D00067602268DB0342EA0A0758BF22EA0A077A
:1006E000276053E703B0BDE8F08F000041F2B80087
:1006F000C2F200000068704740F2000041F2B80109
:10070000C2F20000C2F2000100780A6810440860DA
:100710007047000080B543F60040C4F20200016853
:1007200041F400710160016841F480610160016879
:1007300041F480710160032000F074F80F2000F094
:1007400005F800F027F8002080BD000070B540F2E9
:100750000006C2F2000640F208013278C2F200013F
:100760004FF47A730968B3FBF2F20446B1FBF2F17D
:10077000084600F04DFB0F2C4FF0010508D838B9A2
:100780004FF0FF3021460022002500F01FF8746072
:10079000284670BD82B0002043F640010190C4F2AB
:1007A00002014A6842F480424A604A6802F4804288
:1007B0000192019A0090086840F080500860086833
:1007C00000F080500090009802B0704710B54EF6CF
:1007D0000C5CCEF2000CDCF80030C3F3022E8EF07D
:1007E0000704042C28BF0424BEF103034FF0FF3E8E
:1007F0000EFA04F438BF0023A14399400EFA03F324
:100800009A43114300F00F0200F160430901043ADA
:1008100003F564436244002848BF02F10C031970D9
:1008200010BD00004EF60C51CEF200010A684FF6E2
:10083000FF031A4060F30A2242F0806040F0FD702E
:1008400008607047002804BF012070472DE9F0417F
:1008500043F60808C4F202080446D8F8F8030D4627
:1008600000F00700884207D288F8F853D8F8F80358
:1008700000F00700A84277D12068810717D541070B
:1008800005D5D8F8001041F4E051C8F80010010770
:1008900005D5D8F8001041F46041C8F80010D8F828
:1008A0000010A26821F0F0011143C8F80010C00741
:1008B00040D1D8F8F80300F00700A84207D988F81B
:1008C000F853D8F8F80300F00700A8424CD120688C
:1008D000410707D5D8F80010E26821F4E051114330
:1008E000C8F80010000708D5D8F80000216920F4E6
:1008F000604040EAC100C8F8000000F07DF8D8F878
:10090000001041F6EC62C1F30311C0F60002515C25
:1009100040F2080220FA01F140F20400C2F20000A5
:100920000068C2F200021160FFF710FF0020BDE86E
:10093000F08100BF6068811E022907D258F8081CA8
:1009400089015CBF0120BDE8F08111E0012807D1D9
:1009500058F8081C89035CBF0120BDE8F08107E05E
:1009600058F8081C890703D40120BDE8F08100BFB6
:10097000D8F8001021F003010843C8F80000FFF781
:10098000B5FE064641F28837D8F80000616800F0ED
:100990000C00B0EB810F8CD0FFF7A8FE801BB84293
:1009A000F2D90320BDE8F08140F2080043F60801C7
:1009B000C2F20000C4F202010068096841F6FC625C
:1009C000C1F38221C0F60002515CC84070470000AC
:1009D00040F2080043F60801C2F20000C4F202012E
:1009E0000068096841F6FC62C1F34231C0F60002BA
:1009F000515CC8407047000010B543F60404C4F2CF
:100A00000204606800F00C0142F200400829C0F2C4
:100A1000F40007D0042918BF10BD41F20020C0F235
:100A20007A0010BD216801F03F0221682368490265
:100A3000C3F3881106D4A1FB00010023FFF72AFCB1
:100A400007E000BF41F20020C0F27A004843B0FB4B
:100A5000F2F021680222C1F3014102EB4101B0FB37
:100A6000F1F010BD002804BF012070472DE9F041CE
:100A700082B00446007843F60006C007C4F20206BE
:100A80000CD0B06800F00C00042840F08180306881
:100A9000800303D56068002800F068812078800713
:100AA0001BD5B06810F00C0F09D0B06800F00C0036
:100AB000082840F087807068400200F18380306829
:100AC000800703D5E068012840F050813068216933
:100AD00020F0F80040EAC10030602078000713D40D
:100AE000207840072AD4A569002D00F03A81B0682B
:100AF00000F00C00082840F0A580012D40F00E8188
:100B0000012002B0BDE8F0816069002800F0828019
:100B10000020C4F247200121C0F8801EFFF7E6FD47
:100B2000054600BF706F8007DAD4FFF7DFFD401B7A
:100B30000228F7D9032002B0BDE8F081306C5FEAEB
:100B4000C0080AD400200190306C40F0805030641E
:100B5000306C00F080500190019847F20007C4F219
:100B600000073868C00547D4386840F480703860A2
:100B7000FFF7BCFD054600BF3868C0053CD4FFF751
:100B8000B5FD401B0228F7D9032002B0BDE8F08173
:100B9000B06800F00C00082803D1706840023FF5EF
:100BA00076AF61683068B1F5803F07D0B1F5A02F0E
:100BB00040F09A8040F480203060306840F480300B
:100BC00030609AE0E068002840F20000C4F247205C
:100BD0005CD001210160FFF789FD05463068800780
:100BE0003FF574AFFFF782FD401B0228F6D90320C2
:100BF00002B0BDE8F08100BFA168306F012905D0C7
:100C0000052955D140F004003067306F40F00100F5
:100C1000306756E00020C4F247200021C0F8801E53
:100C2000FFF764FD054600BF706F80077FF558AF82
:100C3000FFF75CFD401B0228F6D9032002B0BDE897
:100C4000F08100BF0027C4F2472700203866FFF775
:100C50004DFD022D05460DD13068800140F18A809E
:100C6000FFF744FD401B02284FF00300F4D902B007
:100C7000BDE8F0813068800173D5FFF737FD401B78
:100C800002284FF00300F5D9F1E700BF0021016011
:100C9000FFF72CFD054600BF306880077FF51DAFCC
:100CA000FFF724FD401B02284FF00300F4D9DEE7D4
:100CB00020F001003067306F002920F00400306719
:100CC0007AD0FFF713FD054641F28837306F800771
:100CD00000F18480FFF70AFD401BB842F6D90320DB
:100CE00002B0BDE8F08100BF20F480303060306891
:100CF000002920F4802030607AD0FFF7F7FC054609
:100D0000306880033FF5CAAEFFF7F0FC401B642853
:100D1000F6D9032002B0BDE8F08100BF7068E16938
:100D200000F480028A4221D1216A00F03F028A4207
:100D30001CD147F6C071626A0140B1EB821F15D128
:100D4000A16A4FF6FF73C903994300F44032A1F53D
:100D500080318A420AD1E16A00F07060B0EB016F25
:100D600004D1002002B0BDE8F08100BF012002B034
:100D7000BDE8F08104F11C052FCD084340EA821044
:100D8000D9034FF6FF729143A1F5803140EA056027
:100D90000843706001203866FFF7A8FC044600BFD6
:100DA00030688001DDD4FFF7A1FC001B02284FF062
:100DB0000300F5D95BE700BFFFF798FC054641F259
:100DC000883700BF306F800708D5FFF78FFC401BC6
:100DD000B8424FF00300F5D949E700BFB8F1000F62
:100DE0003FF581AE306C20F0805030647BE600BF70
:100DF000FFF77CFC054600BF306880037FF54EAEF0
:100E0000FFF774FC401B64284FF00300F4D92EE771
:100E1000411E0020B0EB116F1CBF012070474EF245
:100E20001002CEF2000251604EF62351CEF20001C4
:100E3000F0230B700721906011607047002804BFF9
:100E40000120704710B5044690F8410028B90020F1
:100E500084F84000204600F021F8242084F8410066
:100E60002068C16821F40051C160204600F0CEF92D
:100E70002068016921F490410161416921F02A0152
:100E80004161C16841F40051C160002020216064CB
:100E900084F8411084F84210606310BD80B586B0BC
:100EA00044F600010068C4F2000100228842059265
:100EB000CDE903220292019202D006B080BD00BFAC
:100EC00043F630000092C4F20200036943F4802329
:100ED0000361036903F480230093009B009203687D
:100EE00043F002030360006800F0020000900098E5
:100EF0004FF4406001900220CDE9020203200490EB
:100F00000720059001F5DE3001A9FFF71FFB06B0B1
:100F100080BD00002DE9F04381B0044690F8410007
:100F2000202809D100294FF0010018BF002A07D15D
:100F300001B0BDE8F08300BF022001B0BDE8F0833E
:100F40000020606421201D460E4684F841001746AB
:100F5000FFF7CCFBA784E784A1688146B1F5805FE9
:100F600002D1206900285DD037460020E28C21683C
:100F7000002A5DD06A1C24D0002D4AD0804600BFD4
:100F80000868000608D4FFF7B1FBA0EB0900A842EF
:100F90007AD82168C868F3E717B117F8010B04E0A5
:100FA00038F8020B00276FF35F204860E08C0138AF
:100FB000E084E08C0028E3D13AE000BF0A68120622
:100FC00009D40A68120606D40A6812065CBF0A68C9
:100FD0005FEA0262F2D51FB117F8012B05E000BFEE
:100FE00030F8022B00276FF35F224A60E28C013A4F
:100FF000E284E28C002AE4D11AE000BF30F8022B30
:1010000000276FF35F224A60E28C013AE284E28CAF
:1010100072B10A68120635D5002FEFD017F8012BF0
:10102000F1E700BF00273046E28C2168002AA1D1F9
:10103000086840061ED42DB3681C14D10868400609
:101040002AD40868400627D40868400624D40868D3
:1010500040064FF00000F1D50DE000BF2068C168E8
:101060000068400618D4FFF741FBA0EB0900A84236
:10107000F4D909E00020202184F8411001B0BDE836
:10108000F08300BFFFF732FB0320202184F84110DA
:1010900001B0BDE8F08300BF0020202184F841109A
:1010A00001B0BDE8F0830000FEE7000083B000203F
:1010B00043F630010290C4F202010A6842F0800255
:1010C0000A600A6802F080020292029A01900A689D
:1010D00042F002020A600A6802F002020192019ADA
:1010E0000090086840F001000860086800F0010006
:1010F0000090009803B0704780B540F2700044F64D
:101100000001C2F20000C4F200014AF220120023E2
:101110004FF00C0CC0F2070280E80E00C0E9033368
:10112000C0E905C3C361FFF789FE002808BF80BD81
:10113000BDE88040FFF706BAFEE70000FEE70000CA
:101140007047000070470000FFF7D6BA70B592B044
:1011500006AC20463021FFF78CF9002543F640000D
:101160000595CDE90355CDE901550095C4F202007E
:101170000168022641F080510160006800F0805053
:101180000090009847F200000095C4F2000001684A
:1011900041F480410160006800F4804000900098B4
:1011A000012006904FF4803007904FF480000D909E
:1011B00008200E904FF4A870CDE90F06042011907E
:1011C00020460C96FFF74EFC10B172B6FEE700BF4A
:1011D0000F20CDE901064FF4A05004904FF4805049
:1011E000059001A805210395FFF72CFB10B172B6FD
:1011F000FEE700BF12B070BD4EF68850CEF2000080
:10120000016841F47001016070470000B0B5044608
:10121000006804F108030ECB0569194325F4405515
:101220002A4302616269E3691143C268194349F2C2
:101230000C639A431143C1604169A26921F4407172
:1012400041F20043114340F48062C4F201039A4228
:10125000416103D1FFF7BCFB02E000BFFFF7A4FB35
:10126000E1694FF69C7563681922C0F6FF75B1F508
:10127000004FA0FB02011FD15A00DB0FFFF70AF855
:1012800048F21F51C5F2EB11A0FB01235A0905F1E9
:10129000805302FB0300322303EBC000A0FB0101DB
:1012A0004FF4F87000EA111000EB0210C1F3421184
:1012B000084421688860B0BD9A009B0FFEF7EAFFE2
:1012C00048F21F51C5F2EB11A0FB01235A0902FBA2
:1012D0000500322303EB0010A0FB0101F02000EA1F
:1012E000511000EB0210C1F34311084421688860DB
:1012F000B0BD0000FEE700004EF60C50BFF34F8F6C
:10130000CEF200000168042201F4E061C0F2FA525A
:1013100011430160BFF34F8F00BF00BF00BF00BF8C
:10132000FAE70000ADF5856D4CF200014CF2C334D4
:101330004CF23C354CF2000A44F2000B82A8C0F695
:1013400000014FF48072CAF2A554C5F6A525C0F677
:10135000070AC0F6010BFFF75AF84CF2001142A839
:10136000C0F600014FF48072FFF751F88298002711
:10137000A84219D1C198A04216D18398B0F1011F9B
:1013800012D1879858450FD1889850450CD185982F
:10139000B0F5804F08D882A8F82100F0ABFCC099C6
:1013A000401AB0FA80F04709429840F2B808A842C3
:1013B000C2F2000874D18198A04271D14398B0F173
:1013C000011F6DD1479858456AD14898504567D15B
:1013D0004598B0F5804F63D842A8F82100F08AFC08
:1013E0008099421AB2FA82F252093A40012A40F038
:1013F000D58089984999884280F0448102A842A901
:101400004FF48072FFF703F8DDE90901DDF8309051
:101410000844C390012000224FF0B123CDE9C4005D
:10142000C2A81C21C992C293CDE9C622C89200F07D
:1014300061FC09F01F01C2AFDDE9C554DDE9C76CED
:1014400008EB41118CCF01F5007EC1E98354C1E95D
:10145000856CC1F81C0209F101004CF200018EE814
:101460008C000C90C0F6000140464FF48052FEF70D
:10147000CEFFC2AF384602A94FF48072FEF7C7FF15
:101480003846F82100F036FCCDF8000440463946D5
:101490004FF48072FEF7BBFF08F58070394660E0BC
:1014A000002F7ED10DF1080909F10C00F021FEF7A3
:1014B000E0FF4FF001100295039000254846F82107
:1014C0000495CDE907BA419400F014FCDDE9091256
:1014D0004090012011440B900C9C4FF0B123CDE9BA
:1014E000C310CDE9C550C2A81C21C995C293CDE94E
:1014F000C75500F0FFFB04F01F01C2AE08EB41111D
:101500004CCE01F5007EDDE9C554DDE9C77C8EE8EF
:101510004C000C9AC1E98354C1E9857CC1F81C02D6
:10152000501C4CF200010C90C0F6000140464FF4F4
:101530008052FEF76CFFC2AD284649464FF48072D8
:10154000FEF765FF2846F82100F0D4FBCDF8000433
:10155000404629464FF48072FEF759FF08F5807027
:1015600029464FF48072FEF752FF4CF20000C0F69D
:1015700000004FF4805100F0A2FC002800F08880A9
:1015800040F2B8014CF20000C2F20001C0F60000C7
:101590004FF4805200F098FC7AE000BF002F00F07A
:1015A00075820DF1080982A948464FF48072FEF752
:1015B0002EFFDDE90901DDF830A0084400224FF0DC
:1015C000B123C3900120C992C293CDE9C400CDE9F3
:1015D000C602C2A81C21C89200F08CFB0AF01F01B1
:1015E000C2AE08EB41114CCEDDE9C557DDE9C74C71
:1015F00001F5007E8EE84C00C1E98357C1E9854CB6
:10160000C1F81C020AF101004CF200010C90C0F676
:10161000000140464FF48052FEF7F9FEC2AD284665
:1016200049464FF48072FEF7F2FE2846F82100F09A
:1016300061FBCDF80004404629464FF48072FEF766
:10164000E6FE08F5807029464FF48072FEF7DFFE53
:101650004CF20000C0F600004FF4805100F02FFC67
:1016600058B140F2B8014CF20000C2F20001C0F6DD
:1016700000004FF4805200F027FC4CF2000AC0F644
:10168000070A05E002A882A94FF48072FEF7BFFEA8
:1016900004984AF65521CAF65521884200F0128274
:1016A000DBF800100022C2F6FE72DBF804001140E5
:1016B000B1F1005F4BD16FF31200B0F1006F46D172
:1016C00040F27000C2F200000FF2B841172264230A
:1016D000FFF720FC4EF21000CEF20000002172B69F
:1016E0000160416081604FF0FF31C0F87011C0F8B7
:1016F0007012C0F87411C0F87412C0F87811C0F8F4
:101700007812C0F87C11C0F87C12C0F88011C0F8C3
:101710008012C0F88411C0F88412C0F88811C0F893
:101720008812C0F88C11C0F88C124EF60850BFF326
:101730004F8FCEF20000BFF36F8FC0F800B0DBF820
:10174000000080F30888DBF8040062B68047DDE91A
:1017500009120420002311440B900C9C4FF0B12778
:10176000CDE9C310CDE9C530C2A81C21C993C297E9
:10177000CDE9C73300F0BEFA04F01F01C2AF08EB99
:1017800041118CCF01F5007EDDE9C565DDE9C74C6F
:101790008EE88C000C9AC1E98365C1E9854CC1F8DB
:1017A0001C02501C4CF200010C90C0F60001404697
:1017B0004FF48052FEF72BFE0DF5427B02A95846EE
:1017C0004FF48072FEF723FE5846F82100F092FA9B
:1017D000CDF80004404659464FF48072FEF717FEDC
:1017E00008F5807059464FF48072FEF710FE4CF2F7
:1017F0000000C0F600004FF4805100F060FB58B1CB
:1018000040F2B8014CF20000C2F20001C0F6000044
:101810004FF4805200F058FB40F27000C2F200001A
:10182000DEA116226423FFF775FB41F6047800243D
:101830000DF58169C0F600084FF0200A0EE000BFE8
:10184000013082B240F27000C2F2000059466423B7
:10185000FFF760FB0134202C00F00C814CF20000FB
:10186000C0F6000000EB441000F500778ECFD0E901
:1018700084650DF5816C8CE88E00CDF81C54CDF894
:101880001864DDF80824D0E98610B2F1B12FCDF844
:101890002404CDF82014DDD1DDF8245448461C2161
:1018A00000F028FA8542D5D1DDF80C34DDF810249B
:1018B000180F18F80000C3F303578DF80803C3F39B
:1018C000036018F8000018F807708DF80903C3F3D7
:1018D00003408DF80A7318F80000C3F3033718F8B3
:1018E00007708DF80B03C3F303208DF80C7318F801
:1018F0000070DDF814148DF80D73C3F3031703F0B3
:101900000F0318F8033018F807708DF80F33130F12
:1019100018F803308DF80E73C2F303678DF8113396
:10192000C2F3035318F8077018F803308DF81273D8
:10193000C2F303478DF81333C2F3033318F807706B
:1019400018F803308DF81473C2F303278DF815339C
:10195000C2F3031302F00F0218F8022018F8033044
:101960008DF818230A0F18F802208DF81733C1F3E9
:1019700003638DF81A23C1F3035218F8033018F8E3
:1019800002208DF81B33C1F303438DF81C23C1F3F0
:10199000033218F8033018F802208DF81D33C1F314
:1019A00003238DF81E23C1F3031201F00F01DDF8AC
:1019B000180418F8011018F802208DF82113010FEF
:1019C00018F801108DF82023C0F303628DF823135B
:1019D000C0F3035118F8022018F801108DF82423E1
:1019E000C0F303428DF82513C0F3033118F8022029
:1019F00018F801108DF82623C0F303228DF8271361
:101A0000C0F3031100F00F0018F8000018F8077079
:101A10008DF82A0340F6205018F8033018F80220F9
:101A200018F80110C0F20A00CDF82B034FF0FF3078
:101A30008DF810A38DF816738DF819A38DF81F3348
:101A40008DF822A38DF828238DF829130BEB0001C4
:101A50004A78002A3FF4F4AE8A783AB1CA783AB1AB
:101A6000097904300029F1D1EBE600BF0230E8E645
:101A70000330E6E640F27000C2F200004DA11922E8
:101A80006423FFF747FA00BFFEE700BF88427FF4F8
:101A900009AD0DF1080942A948464FF48072FEF7DE
:101AA000B6FCDDE90901DDF830A0084400224FF062
:101AB000B123C3900120C992C293CDE9C400022092
:101AC00085E500BF059B00215A1EB1EB923F38D13E
:101AD0005046524601680022C2F6FE724768114025
:101AE000B1F1005F2DD16FF31207B7F1006F28D16C
:101AF000194600F0FFF80699884221D140F27000A3
:101B0000C2F2000032A119226423FFF703FA0598FC
:101B100000F0BAF8059BA0B15846194600F0EAF863
:101B20000746DDE9053087420BD1099900200131D4
:101B3000099133A40F250221012204900B900EE09D
:101B4000059B0120CDF6AD6004900A98069F0130F8
:101B50000A9002200B9025A411250321002202AE39
:101B60003046009700F06AF940F27000C2F20000BF
:101B700021462A466423FFF7CDF9304600F048F8A5
:101B8000FFF7BAFB424C3A206A756D70696E6720A8
:101B9000746F206170702E2E2E0D0A00424C3A2078
:101BA0002D2D2D206C6F672064756D70202D2D2DCF
:101BB0000D0A0000424C3A206E6F2076616C696419
:101BC000204150502C2068616C742E0D0A000000DA
:101BD000424C3A2041505032206F6B2C20636F7082
:101BE00079696E672E2E2E0D0A000000424C3A20B5
:101BF000757064617465204641494C0D0A0000000F
:101C0000424C3A20757064617465204F4B0D0A0098
:101C1000F0B5C1B04CF2000440F2B805C0F60004C3
:101C2000C2F200050646284621464FF48052FEF7D0
:101C3000EEFB01AF384631464FF48072FEF7E7FB0A
:101C40003846F82100F056F83F90284639464FF4C0
:101C50008072FEF7DCFB05F5807039464FF4807228
:101C6000FEF7D5FB20464FF4805100F028F940B133
:101C700040F2B801C2F2000120464FF4805200F059
:101C800023F941B0F0BD00002DE9F043C1B0044696
:101C900044F20100201A10F5804F27D344F20008C7
:101CA000C0F6010840464FF4804100F008F9E8B161
:101CB00000260DF1040900BFA71B06EB0805B7F5C8
:101CC000807F28BF4FF4807705F5D02148463A46FB
:101CD000FEF758FB284649463A4600F0F5F810B1A1
:101CE0003E44A642E8D341B0BDE8F083002041B0B5
:101CF000BDE8F083002904BF0020704770B548F2AA
:101D0000203E0129CEF6B85E06D14FF0FF32002307
:101D1000C90766D18FE000BF21F00102C2F1000CBB
:101D20004FF0FF326FF00103C418A578E4786A40E1
:101D30008EEA5205D60708BF55088EEA5502EE070F
:101D400008BF6A088EEA5205D60708BF55088EEA12
:101D50005502EE0708BF6A088EEA5205D60708BF8B
:101D600055088EEA5502EE0708BF6A088EEA52054A
:101D7000D60708BF55088EEA5502EE0708BF6A0865
:101D800062408EEA5204D50708BF54088EEA540216
:101D9000E50708BF62088EEA5204D50708BF540859
:101DA0008EEA5402E50708BF62088EEA5204D5079E
:101DB00008BF54088EEA5402E50708BF62088EEA9D
:101DC0005204D50708BF54088EEA54020233E507CF
:101DD00008BF62080CEB03040234A5D10233C90723
:101DE00029D0C05C50408EEA5001C20708BF4108AC
:101DF0008EEA5100CA0708BF48088EEA5001C207A0
:101E000008BF41088EEA5100CA0708BF48088EEA99
:101E10005001C20708BF41088EEA5100CA0708BF37
:101E200048088EEA5001C20708BF41088EEA5102F5
:101E3000C80708BF4A08D04370BD0000F0B589B09C
:101E40000446D0E9070EDDF838C070440DF1080EE5
:101E5000A56A00264FF0B1278EE80F1001A81C21BB
:101E6000089601970796FFF745FF40F2B80205F084
:101E70001F01C2F2000201AF02EB41118CCFDDE97C
:101E80000465DDE906CEC1F80022C1F80432C1F8CC
:101E90000872C1E98365C1E985CEC1F81C02A06A58
:101EA0000130A06209B0F0BDFEF734FCFFF74EF937
:101EB000FFF7FCF8FFF720F9FFF734FAFEE741F2ED
:101EC000C16CC2F2000C604741F6E50CC2F2000C96
:101ED0006047F1EE100A4FF6FF71C0F2C03120EA00
:101EE000010040F04070E1EE100A70470000000071
:101EF00000000000010203040607080900000000BA
:101F00000102030430313233343536373839414237
:101F10004344454600000000481F00080000002020
:101F200010000000EC010008581F0008C016002037
:101F30001C030000EC010008581F000810000020DE
:101F4000B01600000C0200080100000010000000A4
:101F50000024F400000000000246B0F1006F4FF0D2
:101F60000000C0F09E80002900F09B804FF6FF70BB
:101F7000CFF2F7708B1803EB000C013084454FF063
:101F8000000038BF704702F17841B0EB114F01D12A
:101F9000880B0CE0B1F5003F02D2042007E000BF3F
:101FA00002F1764000F1FF70052101EB50406FF027
:101FB00000615A180021B1EB124F03D14FEA923C55
:101FC0000AE000BFB2F5003F31BF4FF0040C0CF542
:101FD000C021052202EB514C43F60C41C4F2020130
:101FE0004B68B3F1FF3F0BDC40F22313C4F267539D
:101FF00041F8083C48F6AB13CCF6EF5341F8083CE7
:102000000B68604543F0F1030B6004D942E000BF68
:102010000B68DB0309D50B68DB0306D50B68DB0314
:1020200044BF0B685FEAC333F2D40B680A6813F04D
:10203000F00F42F0F1020A602ED14A6822F07802D5
:102040004A604A6842EAC0024A604A6842F00202B4
:102050004A604A6842F480324A600A68D20309D56D
:102060000A68D20344BF0A685FEAC23202D50A682E
:10207000D203F2D40A680B6812F0F00F43F0F103B8
:102080000B604B6823F002034B6005D1604500F103
:102090000100C0D1012000E000204A6842F0004267
:1020A0004A60704702466FF39202B2F1006F1CBFA4
:1020B0000020704780B543F60C42C4F20202536818
:1020C000B3F1FF3F0BDC40F22313C4F2675342F835
:1020D000083C48F6AB13CCF6EF5342F8083C1368C3
:1020E00043F0F10313601368DB0309D51368DB03C6
:1020F00044BF13685FEAC33302D51368DB03F2D42D
:10210000D2F800E013681EF0F00F43F0F103136003
:10211000D2F804C004D000204CF00041516080BDD2
:102120002CF440735360536843F400735360536856
:1021300043F00103536001601068C00309D51068C3
:10214000C00344BF10685FEAC03002D51068C00306
:10215000F2D41068116800F0F00041F0F101116054
:102160005168B0FA80F021F001015160D2F804C04A
:1021700040094CF00041516080BD00BFB0F1006FDC
:102180004FF0000C74D3002972D0002A70D070B5C3
:102190004FF6FF758318CFF2F7752B440135AB422C
:1021A00002D24FF0000C61E043F60C43C4F202038C
:1021B0005D68B5F1FF3F0BDC40F22315C4F26755B3
:1021C00043F8085C48F6AB15CCF6EF5543F8085CCD
:1021D0001D684FF0000E45F0F1051D600DE000BFD9
:1021E0001C681C680EF1010E44F0F1041C605C6870
:1021F000964524F001045C6034D011F80E601C6830
:10220000E40309D51C68E40344BF1C685FEAC434D6
:1022100002D51C68E403F2D41C681D6814F0F004B5
:1022200045F0F1051D601BD15D68B4FA84F425F416
:1022300040755D605D684FEA541C45F001045C60C8
:102240000EF800601C68E403CAD51C68E40344BFB0
:102250001C685FEAC434C3D51C68E403F2D4BFE74A
:102260004FF0000C586840F000405860BDE87040E6
:04227000604670470D
:040000050800018965
:00000001FF
